{
    "abi": [
        {
            "type": "constructor",
            "inputs": [],
            "stateMutability": "nonpayable"
        },
        {
            "type": "function",
            "name": "REP_ADVANCED",
            "inputs": [],
            "outputs": [
                {
                    "name": "",
                    "type": "uint256",
                    "internalType": "uint256"
                }
            ],
            "stateMutability": "view"
        },
        {
            "type": "function",
            "name": "REP_BEGINNER",
            "inputs": [],
            "outputs": [
                {
                    "name": "",
                    "type": "uint256",
                    "internalType": "uint256"
                }
            ],
            "stateMutability": "view"
        },
        {
            "type": "function",
            "name": "REP_INTERMEDIATE",
            "inputs": [],
            "outputs": [
                {
                    "name": "",
                    "type": "uint256",
                    "internalType": "uint256"
                }
            ],
            "stateMutability": "view"
        },
        {
            "type": "function",
            "name": "addIssuer",
            "inputs": [
                {
                    "name": "_issuer",
                    "type": "address",
                    "internalType": "address"
                }
            ],
            "outputs": [],
            "stateMutability": "nonpayable"
        },
        {
            "type": "function",
            "name": "approve",
            "inputs": [
                {
                    "name": "to",
                    "type": "address",
                    "internalType": "address"
                },
                {
                    "name": "tokenId",
                    "type": "uint256",
                    "internalType": "uint256"
                }
            ],
            "outputs": [],
            "stateMutability": "nonpayable"
        },
        {
            "type": "function",
            "name": "balanceOf",
            "inputs": [
                {
                    "name": "owner",
                    "type": "address",
                    "internalType": "address"
                }
            ],
            "outputs": [
                {
                    "name": "",
                    "type": "uint256",
                    "internalType": "uint256"
                }
            ],
            "stateMutability": "view"
        },
        {
            "type": "function",
            "name": "getApproved",
            "inputs": [
                {
                    "name": "tokenId",
                    "type": "uint256",
                    "internalType": "uint256"
                }
            ],
            "outputs": [
                {
                    "name": "",
                    "type": "address",
                    "internalType": "address"
                }
            ],
            "stateMutability": "view"
        },
        {
            "type": "function",
            "name": "getReputation",
            "inputs": [
                {
                    "name": "_user",
                    "type": "address",
                    "internalType": "address"
                }
            ],
            "outputs": [
                {
                    "name": "",
                    "type": "uint256",
                    "internalType": "uint256"
                }
            ],
            "stateMutability": "view"
        },
        {
            "type": "function",
            "name": "getSkill",
            "inputs": [
                {
                    "name": "_tokenId",
                    "type": "uint256",
                    "internalType": "uint256"
                }
            ],
            "outputs": [
                {
                    "name": "name",
                    "type": "string",
                    "internalType": "string"
                },
                {
                    "name": "level",
                    "type": "uint8",
                    "internalType": "enum SkillChain.Level"
                },
                {
                    "name": "issuer",
                    "type": "address",
                    "internalType": "address"
                },
                {
                    "name": "issuedAt",
                    "type": "uint256",
                    "internalType": "uint256"
                },
                {
                    "name": "uri",
                    "type": "string",
                    "internalType": "string"
                }
            ],
            "stateMutability": "view"
        },
        {
            "type": "function",
            "name": "getUserSkills",
            "inputs": [
                {
                    "name": "_user",
                    "type": "address",
                    "internalType": "address"
                }
            ],
            "outputs": [
                {
                    "name": "",
                    "type": "uint256[]",
                    "internalType": "uint256[]"
                }
            ],
            "stateMutability": "view"
        },
        {
            "type": "function",
            "name": "hasSkill",
            "inputs": [
                {
                    "name": "",
                    "type": "address",
                    "internalType": "address"
                },
                {
                    "name": "",
                    "type": "string",
                    "internalType": "string"
                }
            ],
            "outputs": [
                {
                    "name": "",
                    "type": "bool",
                    "internalType": "bool"
                }
            ],
            "stateMutability": "view"
        },
        {
            "type": "function",
            "name": "isApprovedForAll",
            "inputs": [
                {
                    "name": "owner",
                    "type": "address",
                    "internalType": "address"
                },
                {
                    "name": "operator",
                    "type": "address",
                    "internalType": "address"
                }
            ],
            "outputs": [
                {
                    "name": "",
                    "type": "bool",
                    "internalType": "bool"
                }
            ],
            "stateMutability": "view"
        },
        {
            "type": "function",
            "name": "isIssuer",
            "inputs": [
                {
                    "name": "",
                    "type": "address",
                    "internalType": "address"
                }
            ],
            "outputs": [
                {
                    "name": "",
                    "type": "bool",
                    "internalType": "bool"
                }
            ],
            "stateMutability": "view"
        },
        {
            "type": "function",
            "name": "mintSkill",
            "inputs": [
                {
                    "name": "_to",
                    "type": "address",
                    "internalType": "address"
                },
                {
                    "name": "_skillName",
                    "type": "string",
                    "internalType": "string"
                },
                {
                    "name": "_level",
                    "type": "uint8",
                    "internalType": "enum SkillChain.Level"
                },
                {
                    "name": "_tokenURI",
                    "type": "string",
                    "internalType": "string"
                }
            ],
            "outputs": [
                {
                    "name": "tokenId",
                    "type": "uint256",
                    "internalType": "uint256"
                }
            ],
            "stateMutability": "nonpayable"
        },
        {
            "type": "function",
            "name": "name",
            "inputs": [],
            "outputs": [
                {
                    "name": "",
                    "type": "string",
                    "internalType": "string"
                }
            ],
            "stateMutability": "view"
        },
        {
            "type": "function",
            "name": "owner",
            "inputs": [],
            "outputs": [
                {
                    "name": "",
                    "type": "address",
                    "internalType": "address"
                }
            ],
            "stateMutability": "view"
        },
        {
            "type": "function",
            "name": "ownerOf",
            "inputs": [
                {
                    "name": "tokenId",
                    "type": "uint256",
                    "internalType": "uint256"
                }
            ],
            "outputs": [
                {
                    "name": "",
                    "type": "address",
                    "internalType": "address"
                }
            ],
            "stateMutability": "view"
        },
        {
            "type": "function",
            "name": "renounceOwnership",
            "inputs": [],
            "outputs": [],
            "stateMutability": "nonpayable"
        },
        {
            "type": "function",
            "name": "reputation",
            "inputs": [
                {
                    "name": "",
                    "type": "address",
                    "internalType": "address"
                }
            ],
            "outputs": [
                {
                    "name": "",
                    "type": "uint256",
                    "internalType": "uint256"
                }
            ],
            "stateMutability": "view"
        },
        {
            "type": "function",
            "name": "revokeIssuer",
            "inputs": [
                {
                    "name": "_issuer",
                    "type": "address",
                    "internalType": "address"
                }
            ],
            "outputs": [],
            "stateMutability": "nonpayable"
        },
        {
            "type": "function",
            "name": "safeTransferFrom",
            "inputs": [
                {
                    "name": "from",
                    "type": "address",
                    "internalType": "address"
                },
                {
                    "name": "to",
                    "type": "address",
                    "internalType": "address"
                },
                {
                    "name": "tokenId",
                    "type": "uint256",
                    "internalType": "uint256"
                }
            ],
            "outputs": [],
            "stateMutability": "nonpayable"
        },
        {
            "type": "function",
            "name": "safeTransferFrom",
            "inputs": [
                {
                    "name": "from",
                    "type": "address",
                    "internalType": "address"
                },
                {
                    "name": "to",
                    "type": "address",
                    "internalType": "address"
                },
                {
                    "name": "tokenId",
                    "type": "uint256",
                    "internalType": "uint256"
                },
                {
                    "name": "data",
                    "type": "bytes",
                    "internalType": "bytes"
                }
            ],
            "outputs": [],
            "stateMutability": "nonpayable"
        },
        {
            "type": "function",
            "name": "setApprovalForAll",
            "inputs": [
                {
                    "name": "operator",
                    "type": "address",
                    "internalType": "address"
                },
                {
                    "name": "approved",
                    "type": "bool",
                    "internalType": "bool"
                }
            ],
            "outputs": [],
            "stateMutability": "nonpayable"
        },
        {
            "type": "function",
            "name": "skills",
            "inputs": [
                {
                    "name": "",
                    "type": "uint256",
                    "internalType": "uint256"
                }
            ],
            "outputs": [
                {
                    "name": "name",
                    "type": "string",
                    "internalType": "string"
                },
                {
                    "name": "level",
                    "type": "uint8",
                    "internalType": "enum SkillChain.Level"
                },
                {
                    "name": "issuer",
                    "type": "address",
                    "internalType": "address"
                },
                {
                    "name": "issuedAt",
                    "type": "uint256",
                    "internalType": "uint256"
                }
            ],
            "stateMutability": "view"
        },
        {
            "type": "function",
            "name": "supportsInterface",
            "inputs": [
                {
                    "name": "interfaceId",
                    "type": "bytes4",
                    "internalType": "bytes4"
                }
            ],
            "outputs": [
                {
                    "name": "",
                    "type": "bool",
                    "internalType": "bool"
                }
            ],
            "stateMutability": "view"
        },
        {
            "type": "function",
            "name": "symbol",
            "inputs": [],
            "outputs": [
                {
                    "name": "",
                    "type": "string",
                    "internalType": "string"
                }
            ],
            "stateMutability": "view"
        },
        {
            "type": "function",
            "name": "tokenURI",
            "inputs": [
                {
                    "name": "tokenId",
                    "type": "uint256",
                    "internalType": "uint256"
                }
            ],
            "outputs": [
                {
                    "name": "",
                    "type": "string",
                    "internalType": "string"
                }
            ],
            "stateMutability": "view"
        },
        {
            "type": "function",
            "name": "totalSupply",
            "inputs": [],
            "outputs": [
                {
                    "name": "",
                    "type": "uint256",
                    "internalType": "uint256"
                }
            ],
            "stateMutability": "view"
        },
        {
            "type": "function",
            "name": "transferFrom",
            "inputs": [
                {
                    "name": "from",
                    "type": "address",
                    "internalType": "address"
                },
                {
                    "name": "to",
                    "type": "address",
                    "internalType": "address"
                },
                {
                    "name": "tokenId",
                    "type": "uint256",
                    "internalType": "uint256"
                }
            ],
            "outputs": [],
            "stateMutability": "nonpayable"
        },
        {
            "type": "function",
            "name": "transferOwnership",
            "inputs": [
                {
                    "name": "newOwner",
                    "type": "address",
                    "internalType": "address"
                }
            ],
            "outputs": [],
            "stateMutability": "nonpayable"
        },
        {
            "type": "function",
            "name": "userSkills",
            "inputs": [
                {
                    "name": "",
                    "type": "address",
                    "internalType": "address"
                },
                {
                    "name": "",
                    "type": "uint256",
                    "internalType": "uint256"
                }
            ],
            "outputs": [
                {
                    "name": "",
                    "type": "uint256",
                    "internalType": "uint256"
                }
            ],
            "stateMutability": "view"
        },
        {
            "type": "event",
            "name": "Approval",
            "inputs": [
                {
                    "name": "owner",
                    "type": "address",
                    "indexed": true,
                    "internalType": "address"
                },
                {
                    "name": "approved",
                    "type": "address",
                    "indexed": true,
                    "internalType": "address"
                },
                {
                    "name": "tokenId",
                    "type": "uint256",
                    "indexed": true,
                    "internalType": "uint256"
                }
            ],
            "anonymous": false
        },
        {
            "type": "event",
            "name": "ApprovalForAll",
            "inputs": [
                {
                    "name": "owner",
                    "type": "address",
                    "indexed": true,
                    "internalType": "address"
                },
                {
                    "name": "operator",
                    "type": "address",
                    "indexed": true,
                    "internalType": "address"
                },
                {
                    "name": "approved",
                    "type": "bool",
                    "indexed": false,
                    "internalType": "bool"
                }
            ],
            "anonymous": false
        },
        {
            "type": "event",
            "name": "BatchMetadataUpdate",
            "inputs": [
                {
                    "name": "_fromTokenId",
                    "type": "uint256",
                    "indexed": false,
                    "internalType": "uint256"
                },
                {
                    "name": "_toTokenId",
                    "type": "uint256",
                    "indexed": false,
                    "internalType": "uint256"
                }
            ],
            "anonymous": false
        },
        {
            "type": "event",
            "name": "IssuerAdded",
            "inputs": [
                {
                    "name": "issuer",
                    "type": "address",
                    "indexed": true,
                    "internalType": "address"
                }
            ],
            "anonymous": false
        },
        {
            "type": "event",
            "name": "IssuerRevoked",
            "inputs": [
                {
                    "name": "issuer",
                    "type": "address",
                    "indexed": true,
                    "internalType": "address"
                }
            ],
            "anonymous": false
        },
        {
            "type": "event",
            "name": "MetadataUpdate",
            "inputs": [
                {
                    "name": "_tokenId",
                    "type": "uint256",
                    "indexed": false,
                    "internalType": "uint256"
                }
            ],
            "anonymous": false
        },
        {
            "type": "event",
            "name": "OwnershipTransferred",
            "inputs": [
                {
                    "name": "previousOwner",
                    "type": "address",
                    "indexed": true,
                    "internalType": "address"
                },
                {
                    "name": "newOwner",
                    "type": "address",
                    "indexed": true,
                    "internalType": "address"
                }
            ],
            "anonymous": false
        },
        {
            "type": "event",
            "name": "SkillMinted",
            "inputs": [
                {
                    "name": "tokenId",
                    "type": "uint256",
                    "indexed": true,
                    "internalType": "uint256"
                },
                {
                    "name": "recipient",
                    "type": "address",
                    "indexed": true,
                    "internalType": "address"
                },
                {
                    "name": "skillName",
                    "type": "string",
                    "indexed": false,
                    "internalType": "string"
                },
                {
                    "name": "level",
                    "type": "uint8",
                    "indexed": false,
                    "internalType": "enum SkillChain.Level"
                },
                {
                    "name": "issuer",
                    "type": "address",
                    "indexed": true,
                    "internalType": "address"
                },
                {
                    "name": "tokenURI",
                    "type": "string",
                    "indexed": false,
                    "internalType": "string"
                }
            ],
            "anonymous": false
        },
        {
            "type": "event",
            "name": "Transfer",
            "inputs": [
                {
                    "name": "from",
                    "type": "address",
                    "indexed": true,
                    "internalType": "address"
                },
                {
                    "name": "to",
                    "type": "address",
                    "indexed": true,
                    "internalType": "address"
                },
                {
                    "name": "tokenId",
                    "type": "uint256",
                    "indexed": true,
                    "internalType": "uint256"
                }
            ],
            "anonymous": false
        },
        {
            "type": "error",
            "name": "AlreadyIssuer",
            "inputs": [
                {
                    "name": "issuer",
                    "type": "address",
                    "internalType": "address"
                }
            ]
        },
        {
            "type": "error",
            "name": "DuplicateSkill",
            "inputs": [
                {
                    "name": "holder",
                    "type": "address",
                    "internalType": "address"
                },
                {
                    "name": "skillName",
                    "type": "string",
                    "internalType": "string"
                }
            ]
        },
        {
            "type": "error",
            "name": "ERC721IncorrectOwner",
            "inputs": [
                {
                    "name": "sender",
                    "type": "address",
                    "internalType": "address"
                },
                {
                    "name": "tokenId",
                    "type": "uint256",
                    "internalType": "uint256"
                },
                {
                    "name": "owner",
                    "type": "address",
                    "internalType": "address"
                }
            ]
        },
        {
            "type": "error",
            "name": "ERC721InsufficientApproval",
            "inputs": [
                {
                    "name": "operator",
                    "type": "address",
                    "internalType": "address"
                },
                {
                    "name": "tokenId",
                    "type": "uint256",
                    "internalType": "uint256"
                }
            ]
        },
        {
            "type": "error",
            "name": "ERC721InvalidApprover",
            "inputs": [
                {
                    "name": "approver",
                    "type": "address",
                    "internalType": "address"
                }
            ]
        },
        {
            "type": "error",
            "name": "ERC721InvalidOperator",
            "inputs": [
                {
                    "name": "operator",
                    "type": "address",
                    "internalType": "address"
                }
            ]
        },
        {
            "type": "error",
            "name": "ERC721InvalidOwner",
            "inputs": [
                {
                    "name": "owner",
                    "type": "address",
                    "internalType": "address"
                }
            ]
        },
        {
            "type": "error",
            "name": "ERC721InvalidReceiver",
            "inputs": [
                {
                    "name": "receiver",
                    "type": "address",
                    "internalType": "address"
                }
            ]
        },
        {
            "type": "error",
            "name": "ERC721InvalidSender",
            "inputs": [
                {
                    "name": "sender",
                    "type": "address",
                    "internalType": "address"
                }
            ]
        },
        {
            "type": "error",
            "name": "ERC721NonexistentToken",
            "inputs": [
                {
                    "name": "tokenId",
                    "type": "uint256",
                    "internalType": "uint256"
                }
            ]
        },
        {
            "type": "error",
            "name": "EmptySkillName",
            "inputs": []
        },
        {
            "type": "error",
            "name": "NotAnIssuer",
            "inputs": [
                {
                    "name": "issuer",
                    "type": "address",
                    "internalType": "address"
                }
            ]
        },
        {
            "type": "error",
            "name": "NotIssuer",
            "inputs": [
                {
                    "name": "caller",
                    "type": "address",
                    "internalType": "address"
                }
            ]
        },
        {
            "type": "error",
            "name": "OwnableInvalidOwner",
            "inputs": [
                {
                    "name": "owner",
                    "type": "address",
                    "internalType": "address"
                }
            ]
        },
        {
            "type": "error",
            "name": "OwnableUnauthorizedAccount",
            "inputs": [
                {
                    "name": "account",
                    "type": "address",
                    "internalType": "address"
                }
            ]
        },
        {
            "type": "error",
            "name": "Soulbound",
            "inputs": [
                {
                    "name": "tokenId",
                    "type": "uint256",
                    "internalType": "uint256"
                }
            ]
        },
        {
            "type": "error",
            "name": "TokenNotFound",
            "inputs": [
                {
                    "name": "tokenId",
                    "type": "uint256",
                    "internalType": "uint256"
                }
            ]
        },
        {
            "type": "error",
            "name": "ZeroAddress",
            "inputs": []
        }
    ],
    "bytecode": {
        "object": "0x608060405234801562000010575f80fd5b50336040518060400160405280601581526020017f536b696c6c436861696e2043726564656e7469616c00000000000000000000008152506040518060400160405280600581526020016414d2d2531360da1b815250815f9081620000769190620001bc565b506001620000858282620001bc565b5050506001600160a01b038116620000b657604051631e4fbdf760e01b81525f600482015260240160405180910390fd5b620000c181620000cd565b50600160085562000288565b600780546001600160a01b038381166001600160a01b0319831681179093556040519116919082907f8be0079c531659141344cd1fd0a4f28419497f9722a3daafe3b4186f6b6457e0905f90a35050565b634e487b7160e01b5f52604160045260245ffd5b600181811c908216806200014757607f821691505b6020821081036200016657634e487b7160e01b5f52602260045260245ffd5b50919050565b601f821115620001b757805f5260205f20601f840160051c81016020851015620001935750805b601f840160051c820191505b81811015620001b4575f81556001016200019f565b50505b505050565b81516001600160401b03811115620001d857620001d86200011e565b620001f081620001e9845462000132565b846200016c565b602080601f83116001811462000226575f84156200020e5750858301515b5f19600386901b1c1916600185901b17855562000280565b5f85815260208120601f198616915b82811015620002565788860151825594840194600190910190840162000235565b50858210156200027457878501515f19600388901b60f8161c191681555b505060018460011b0185555b505050505050565b61200580620002965f395ff3fe608060405234801561000f575f80fd5b50600436106101db575f3560e01c8063715018a611610109578063b9f794511161009e578063e55531771161006e578063e55531771461046f578063e985e9c514610482578063f2fde38b14610495578063fe58047e146104a8575f80fd5b8063b9f79451146103f9578063bd880fae14610418578063c87b56dd1461043c578063d2886ebc1461044f575f80fd5b806395d89b41116100d957806395d89b41146103a35780639c89a0e2146103ab578063a22cb465146103d3578063b88d4fde146103e6575f80fd5b8063715018a61461036057806373ff666314610368578063877b9a67146103705780638da5cb5b14610392575f80fd5b806320694db01161017f57806342842e0e1161014f57806342842e0e1461030457806350d15fbe146103175780636352211e1461033a57806370a082311461034d575f80fd5b806320694db01461029857806323b872dd146102ab57806327637190146102be5780633bcab733146102fc575f80fd5b8063081812fc116101ba578063081812fc14610231578063095ea7b31461025c57806316f65ade1461026f57806318160ddd14610290575f80fd5b8062629679146101df57806301ffc9a7146101f457806306fdde031461021c575b5f80fd5b6101f26101ed36600461186f565b6104b0565b005b61020761020236600461189d565b610548565b60405190151581526020015b60405180910390f35b610224610572565b6040516102139190611905565b61024461023f366004611917565b610601565b6040516001600160a01b039091168152602001610213565b6101f261026a36600461192e565b610628565b61028261027d36600461192e565b610637565b604051908152602001610213565b610282610662565b6101f26102a636600461186f565b610677565b6101f26102b9366004611956565b610735565b6102076102cc366004611a16565b600d60209081525f9283526040909220815180830184018051928152908401929093019190912091525460ff1681565b610282603281565b6101f2610312366004611956565b6107be565b61032a610325366004611917565b6107dd565b6040516102139493929190611aa8565b610244610348366004611917565b610898565b61028261035b36600461186f565b6108a2565b6101f26108e7565b610282600a81565b61020761037e36600461186f565b600b6020525f908152604090205460ff1681565b6007546001600160a01b0316610244565b6102246108fa565b6102826103b936600461186f565b6001600160a01b03165f908152600c602052604090205490565b6101f26103e1366004611ae4565b610909565b6101f26103f4366004611b1d565b610914565b61028261040736600461186f565b600c6020525f908152604090205481565b61042b610426366004611917565b61092c565b604051610213959493929190611b94565b61022461044a366004611917565b610a50565b61046261045d36600461186f565b610ad1565b6040516102139190611be7565b61028261047d366004611c6f565b610b3a565b610207610490366004611d01565b610e4a565b6101f26104a336600461186f565b610e77565b610282601481565b6104b8610eb4565b6001600160a01b0381165f908152600b602052604090205460ff1661050057604051630b91546960e21b81526001600160a01b03821660048201526024015b60405180910390fd5b6001600160a01b0381165f818152600b6020526040808220805460ff19169055517f95a4c2ae425bb769549aa1a911911ff57c17ae811ae8c8962d0b9746fcb153979190a250565b5f6001600160e01b03198216632483248360e11b148061056c575061056c82610ee1565b92915050565b60605f805461058090611d32565b80601f01602080910402602001604051908101604052809291908181526020018280546105ac90611d32565b80156105f75780601f106105ce576101008083540402835291602001916105f7565b820191905f5260205f20905b8154815290600101906020018083116105da57829003601f168201915b5050505050905090565b5f61060b82610f30565b505f828152600460205260409020546001600160a01b031661056c565b610633828233610f68565b5050565b600a602052815f5260405f208181548110610650575f80fd5b905f5260205f20015f91509150505481565b5f60016008546106729190611d7e565b905090565b61067f610eb4565b6001600160a01b0381166106a65760405163d92e233d60e01b815260040160405180910390fd5b6001600160a01b0381165f908152600b602052604090205460ff16156106ea57604051630f70bfa360e31b81526001600160a01b03821660048201526024016104f7565b6001600160a01b0381165f818152600b6020526040808220805460ff19166001179055517f05e7c881d716bee8cb7ed92293133ba156704252439e5c502c277448f04e20c29190a250565b6001600160a01b03821661075e57604051633250574960e11b81525f60048201526024016104f7565b5f61076a838333610f75565b9050836001600160a01b0316816001600160a01b0316146107b8576040516364283d7b60e01b81526001600160a01b03808616600483015260248201849052821660448201526064016104f7565b50505050565b6107d883838360405180602001604052805f815250610914565b505050565b60096020525f90815260409020805481906107f790611d32565b80601f016020809104026020016040519081016040528092919081815260200182805461082390611d32565b801561086e5780601f106108455761010080835404028352916020019161086e565b820191905f5260205f20905b81548152906001019060200180831161085157829003601f168201915b505050506001830154600290930154919260ff8116926101009091046001600160a01b0316915084565b5f61056c82610f30565b5f6001600160a01b0382166108cc576040516322718ad960e21b81525f60048201526024016104f7565b506001600160a01b03165f9081526003602052604090205490565b6108ef610eb4565b6108f85f610fc2565b565b60606001805461058090611d32565b610633338383611013565b61091f848484610735565b6107b833858585856110da565b60605f80808381610951875f908152600260205260409020546001600160a01b031690565b6001600160a01b03160361097b576040516306caeb1360e41b8152600481018790526024016104f7565b5f86815260096020526040902060018101546002820154829160ff8116916101009091046001600160a01b0316906109b28b610a50565b8480546109be90611d32565b80601f01602080910402602001604051908101604052809291908181526020018280546109ea90611d32565b8015610a355780601f10610a0c57610100808354040283529160200191610a35565b820191905f5260205f20905b815481529060010190602001808311610a1857829003601f168201915b50505050509450955095509550955095505091939590929450565b6060610a5b82610f30565b505f610a7160408051602081019091525f815290565b90505f610a7d84611202565b905081515f03610a8e579392505050565b805115610ac0578181604051602001610aa8929190611d91565b60405160208183030381529060405292505050919050565b610ac984611297565b949350505050565b6001600160a01b0381165f908152600a6020908152604091829020805483518184028101840190945280845260609392830182828015610b2e57602002820191905f5260205f20905b815481526020019060010190808311610b1a575b50505050509050919050565b335f908152600b602052604081205460ff16610b6b57604051631fe937cf60e11b81523360048201526024016104f7565b6001600160a01b038716610b925760405163d92e233d60e01b815260040160405180910390fd5b5f859003610bb35760405163ac7b7ed760e01b815260040160405180910390fd5b6001600160a01b0387165f908152600d6020526040908190209051610bdb9088908890611dbf565b9081526040519081900360200190205460ff1615610c125786868660405163af264be360e01b81526004016104f793929190611df6565b60088054905f610c2183611e1a565b919050559050610c318782611308565b610c708184848080601f0160208091040260200160405190810160405280939291908181526020018383808284375f9201919091525061132192505050565b604051806080016040528087878080601f0160208091040260200160405190810160405280939291908181526020018383808284375f92019190915250505090825250602001856002811115610cc857610cc8611a74565b815233602080830191909152426040928301525f84815260099091522081518190610cf39082611e76565b50602082015160018083018054909160ff1990911690836002811115610d1b57610d1b611a74565b021790555060408281015160018381018054610100600160a81b0319166101006001600160a01b03948516021790556060909401516002909301929092559089165f818152600a60209081528382208054808701825590835281832001869055918152600d9091528190209051610d959089908990611dbf565b908152604051908190036020019020805491151560ff19909216919091179055610dbe84611370565b6001600160a01b0388165f908152600c602052604081208054909190610de5908490611f32565b92505081905550336001600160a01b0316876001600160a01b0316827fc95fa5ca757bc4456a986494ffbf6ad5a0d2dc2d30fce86cbc80ff11dddaad198989898989604051610e38959493929190611f45565b60405180910390a49695505050505050565b6001600160a01b039182165f90815260056020908152604080832093909416825291909152205460ff1690565b610e7f610eb4565b6001600160a01b038116610ea857604051631e4fbdf760e01b81525f60048201526024016104f7565b610eb181610fc2565b50565b6007546001600160a01b031633146108f85760405163118cdaa760e01b81523360048201526024016104f7565b5f6001600160e01b031982166380ac58cd60e01b1480610f1157506001600160e01b03198216635b5e139f60e01b145b8061056c57506301ffc9a760e01b6001600160e01b031983161461056c565b5f818152600260205260408120546001600160a01b03168061056c57604051637e27328960e01b8152600481018490526024016104f7565b6107d883838360016113ba565b5f828152600260205260408120546001600160a01b03168015610fae5760405163cd4d862760e01b8152600481018590526024016104f7565b610fb98585856114be565b95945050505050565b600780546001600160a01b038381166001600160a01b0319831681179093556040519116919082907f8be0079c531659141344cd1fd0a4f28419497f9722a3daafe3b4186f6b6457e0905f90a35050565b6001600160a01b03831661103c5760405163a9fbf51f60e01b81525f60048201526024016104f7565b6001600160a01b03821661106e57604051630b61174360e31b81526001600160a01b03831660048201526024016104f7565b6001600160a01b038381165f81815260056020908152604080832094871680845294825291829020805460ff191686151590811790915591519182527f17307eab39ab6107e8899845ad3d59bd9653f200f220920489ca2b5937696c31910160405180910390a3505050565b6001600160a01b0383163b156111fb57604051630a85bd0160e11b81526001600160a01b0384169063150b7a029061111c908890889087908790600401611f78565b6020604051808303815f875af1925050508015611156575060408051601f3d908101601f1916820190925261115391810190611fb4565b60015b6111bd573d808015611183576040519150601f19603f3d011682016040523d82523d5f602084013e611188565b606091505b5080515f036111b557604051633250574960e11b81526001600160a01b03851660048201526024016104f7565b805160208201fd5b6001600160e01b03198116630a85bd0160e11b146111f957604051633250574960e11b81526001600160a01b03851660048201526024016104f7565b505b5050505050565b5f81815260066020526040902080546060919061121e90611d32565b80601f016020809104026020016040519081016040528092919081815260200182805461124a90611d32565b8015610b2e5780601f1061126c57610100808354040283529160200191610b2e565b820191905f5260205f20905b8154815290600101906020018083116112785750939695505050505050565b60606112a282610f30565b505f6112b860408051602081019091525f815290565b90505f8151116112d65760405180602001604052805f815250611301565b806112e0846115b0565b6040516020016112f1929190611d91565b6040516020818303038152906040525b9392505050565b610633828260405180602001604052805f815250611640565b5f8281526006602052604090206113388282611e76565b506040518281527ff8e1a15aba9398e019f0b49df1a4fde98ee17ae345cb5f6b5e2c27f5033e8ce79060200160405180910390a15050565b5f8082600281111561138457611384611a74565b036113915750600a919050565b60018260028111156113a5576113a5611a74565b036113b257506014919050565b506032919050565b80806113ce57506001600160a01b03821615155b1561148f575f6113dd84610f30565b90506001600160a01b038316158015906114095750826001600160a01b0316816001600160a01b031614155b801561141c575061141a8184610e4a565b155b156114455760405163a9fbf51f60e01b81526001600160a01b03841660048201526024016104f7565b811561148d5783856001600160a01b0316826001600160a01b03167f8c5be1e5ebec7d5bd14f71427d1e84f3dd0314c0f7b2291e5b200ac8c7c3b92560405160405180910390a45b505b50505f90815260046020526040902080546001600160a01b0319166001600160a01b0392909216919091179055565b5f828152600260205260408120546001600160a01b03908116908316156114ea576114ea818486611657565b6001600160a01b03811615611524576115055f855f806113ba565b6001600160a01b0381165f90815260036020526040902080545f190190555b6001600160a01b03851615611552576001600160a01b0385165f908152600360205260409020805460010190555b5f8481526002602052604080822080546001600160a01b0319166001600160a01b0389811691821790925591518793918516917fddf252ad1be2c89b69c2b068fc378daa952ba7f163c4a11628f55a4df523b3ef91a4949350505050565b60605f6115bc836116bb565b60010190505f8167ffffffffffffffff8111156115db576115db61198f565b6040519080825280601f01601f191660200182016040528015611605576020820181803683370190505b5090508181016020015b5f19016f181899199a1a9b1b9c1cb0b131b232b360811b600a86061a8153600a850494508461160f57509392505050565b61164a8383611792565b6107d8335f8585856110da565b6116628383836117f3565b6107d8576001600160a01b03831661169057604051637e27328960e01b8152600481018290526024016104f7565b60405163177e802f60e01b81526001600160a01b0383166004820152602481018290526044016104f7565b5f8072184f03e93ff9f4daa797ed6e38ed64bf6a1f0160401b83106116f95772184f03e93ff9f4daa797ed6e38ed64bf6a1f0160401b830492506040015b6d04ee2d6d415b85acef81000000008310611725576d04ee2d6d415b85acef8100000000830492506020015b662386f26fc10000831061174357662386f26fc10000830492506010015b6305f5e100831061175b576305f5e100830492506008015b612710831061176f57612710830492506004015b60648310611781576064830492506002015b600a831061056c5760010192915050565b6001600160a01b0382166117bb57604051633250574960e11b81525f60048201526024016104f7565b5f6117c783835f610f75565b90506001600160a01b038116156107d8576040516339e3563760e11b81525f60048201526024016104f7565b5f6001600160a01b03831615801590610ac95750826001600160a01b0316846001600160a01b0316148061182c575061182c8484610e4a565b80610ac95750505f908152600460205260409020546001600160a01b03908116911614919050565b80356001600160a01b038116811461186a575f80fd5b919050565b5f6020828403121561187f575f80fd5b61130182611854565b6001600160e01b031981168114610eb1575f80fd5b5f602082840312156118ad575f80fd5b813561130181611888565b5f5b838110156118d25781810151838201526020016118ba565b50505f910152565b5f81518084526118f18160208601602086016118b8565b601f01601f19169290920160200192915050565b602081525f61130160208301846118da565b5f60208284031215611927575f80fd5b5035919050565b5f806040838503121561193f575f80fd5b61194883611854565b946020939093013593505050565b5f805f60608486031215611968575f80fd5b61197184611854565b925061197f60208501611854565b9150604084013590509250925092565b634e487b7160e01b5f52604160045260245ffd5b5f67ffffffffffffffff808411156119bd576119bd61198f565b604051601f8501601f19908116603f011681019082821181831017156119e5576119e561198f565b816040528093508581528686860111156119fd575f80fd5b858560208301375f602087830101525050509392505050565b5f8060408385031215611a27575f80fd5b611a3083611854565b9150602083013567ffffffffffffffff811115611a4b575f80fd5b8301601f81018513611a5b575f80fd5b611a6a858235602084016119a3565b9150509250929050565b634e487b7160e01b5f52602160045260245ffd5b60038110611aa457634e487b7160e01b5f52602160045260245ffd5b9052565b608081525f611aba60808301876118da565b9050611ac96020830186611a88565b6001600160a01b039390931660408201526060015292915050565b5f8060408385031215611af5575f80fd5b611afe83611854565b915060208301358015158114611b12575f80fd5b809150509250929050565b5f805f8060808587031215611b30575f80fd5b611b3985611854565b9350611b4760208601611854565b925060408501359150606085013567ffffffffffffffff811115611b69575f80fd5b8501601f81018713611b79575f80fd5b611b88878235602084016119a3565b91505092959194509250565b60a081525f611ba660a08301886118da565b611bb36020840188611a88565b6001600160a01b0386166040840152606083018590528281036080840152611bdb81856118da565b98975050505050505050565b602080825282518282018190525f9190848201906040850190845b81811015611c1e57835183529284019291840191600101611c02565b50909695505050505050565b5f8083601f840112611c3a575f80fd5b50813567ffffffffffffffff811115611c51575f80fd5b602083019150836020828501011115611c68575f80fd5b9250929050565b5f805f805f8060808789031215611c84575f80fd5b611c8d87611854565b9550602087013567ffffffffffffffff80821115611ca9575f80fd5b611cb58a838b01611c2a565b90975095506040890135915060038210611ccd575f80fd5b90935060608801359080821115611ce2575f80fd5b50611cef89828a01611c2a565b979a9699509497509295939492505050565b5f8060408385031215611d12575f80fd5b611d1b83611854565b9150611d2960208401611854565b90509250929050565b600181811c90821680611d4657607f821691505b602082108103611d6457634e487b7160e01b5f52602260045260245ffd5b50919050565b634e487b7160e01b5f52601160045260245ffd5b8181038181111561056c5761056c611d6a565b5f8351611da28184602088016118b8565b835190830190611db68183602088016118b8565b01949350505050565b818382375f9101908152919050565b81835281816020850137505f828201602090810191909152601f909101601f19169091010190565b6001600160a01b03841681526040602082018190525f90610fb99083018486611dce565b5f60018201611e2b57611e2b611d6a565b5060010190565b601f8211156107d857805f5260205f20601f840160051c81016020851015611e575750805b601f840160051c820191505b818110156111fb575f8155600101611e63565b815167ffffffffffffffff811115611e9057611e9061198f565b611ea481611e9e8454611d32565b84611e32565b602080601f831160018114611ed7575f8415611ec05750858301515b5f19600386901b1c1916600185901b1785556111f9565b5f85815260208120601f198616915b82811015611f0557888601518255948401946001909101908401611ee6565b5085821015611f2257878501515f19600388901b60f8161c191681555b5050505050600190811b01905550565b8082018082111561056c5761056c611d6a565b606081525f611f58606083018789611dce565b611f656020840187611a88565b8281036040840152611bdb818587611dce565b6001600160a01b03858116825284166020820152604081018390526080606082018190525f90611faa908301846118da565b9695505050505050565b5f60208284031215611fc4575f80fd5b81516113018161188856fea2646970667358221220af094cdd8f3f60a5e750405df6c63e9f828a7ea6cfbf5a115f4e3e635ecdcec264736f6c63430008180033",
        "linkReferences": {}
    },
    "methodIdentifiers": {
        "REP_ADVANCED()": "3bcab733",
        "REP_BEGINNER()": "73ff6663",
        "REP_INTERMEDIATE()": "fe58047e",
        "addIssuer(address)": "20694db0",
        "approve(address,uint256)": "095ea7b3",
        "balanceOf(address)": "70a08231",
        "getApproved(uint256)": "081812fc",
        "getReputation(address)": "9c89a0e2",
        "getSkill(uint256)": "bd880fae",
        "getUserSkills(address)": "d2886ebc",
        "hasSkill(address,string)": "27637190",
        "isApprovedForAll(address,address)": "e985e9c5",
        "isIssuer(address)": "877b9a67",
        "mintSkill(address,string,uint8,string)": "e5553177",
        "name()": "06fdde03",
        "owner()": "8da5cb5b",
        "ownerOf(uint256)": "6352211e",
        "renounceOwnership()": "715018a6",
        "reputation(address)": "b9f79451",
        "revokeIssuer(address)": "00629679",
        "safeTransferFrom(address,address,uint256)": "42842e0e",
        "safeTransferFrom(address,address,uint256,bytes)": "b88d4fde",
        "setApprovalForAll(address,bool)": "a22cb465",
        "skills(uint256)": "50d15fbe",
        "supportsInterface(bytes4)": "01ffc9a7",
        "symbol()": "95d89b41",
        "tokenURI(uint256)": "c87b56dd",
        "totalSupply()": "18160ddd",
        "transferFrom(address,address,uint256)": "23b872dd",
        "transferOwnership(address)": "f2fde38b",
        "userSkills(address,uint256)": "16f65ade"
    },
    "id": 42
}